:020000040800F2
:1000000038160020D5010008B9070008B10700081C
:10001000B507000861060008A31C000800000000E6
:100020000000000000000000000000007918000837
:100030006506000800000000630200088D19000832
:10004000EF010008EF010008EF010008EF010008D0
:10005000EF010008EF010008EF010008EF010008C0
:10006000EF010008EF010008EF010008EF010008B0
:10007000EF010008EF010008EF010008EF010008A0
:10008000EF010008EF010008EF010008EF01000890
:10009000EF010008EF010008EF010008EF01000880
:1000A000EF010008EF010008EF010008EF01000870
:1000B000EF010008EF010008EF010008EF01000860
:1000C000EF010008EF010008EF010008EF01000850
:1000D000EF010008791A0008EF010008EF0100089D
:1000E000EF010008EF010008EF010008EF01000830
:1000F000EF010008EF010008EF010008EF01000820
:10010000EF010008EF010008EF010008EF0100080F
:10011000EF010008EF010008EF010008EF010008FF
:10012000EF010008EF010008EF010008EF010008EF
:1001300000F002F800F03FF80AA090E8000C8244BA
:100140008344AAF10107DA4501D100F034F8AFF297
:10015000090EBAE80F0013F0010F18BFFB1A43F0A5
:1001600001031847D01E0000F01E0000103A24BF03
:1001700078C878C1FAD8520724BF30C830C144BF0C
:1001800004680C607047000000230024002500264E
:10019000103A28BF78C1FBD8520728BF30C148BFEA
:1001A0000B607047642900F0D180002070471FB5B4
:1001B0001FBD10B510BD00F091F91146FFF7F7FF14
:1001C00001F014FE00F0AFF903B4FFF7F2FF03BC37
:1001D00001F069FD0948804709480047FEE7FEE74E
:1001E000FEE7FEE7FEE7FEE7FEE7FEE7FEE7FEE7E7
:1001F00004480549054A064B70470000191A0008D3
:100200003101000838100020381600203812002074
:1002100038120020EFF3108072B6704780F3108818
:100220007047204C204D25604FF0000484F309886E
:100230001E4C4FF0010525701D4C4FF08055256078
:1002400062B6FEE730B41A4C4FF08055256030BCE2
:10025000704730B4164C4FF08055256030BC704765
:1002600000BF72B6EFF3098028B1203880E8F00FA4
:1002700010490968086000B50F4880475DF804EB35
:100280000E480F490A7802700A480E490A6802604F
:10029000106890E8F00F203080F309884EF0040ECB
:1002A00062B6704720ED00E00000FFFF6E00002006
:1002B00004ED00E0740000202D0F00086300002012
:1002C000640000207C000020704700000FB4044947
:1002D00010B503AA029800F0D3F810BC5DF814FB27
:1002E0002C0000202DE9F0410E460446002020623B
:1002F0002046E168884730B3252805D0D4E901219C
:100300009047206A401CF2E7E168204600278847B2
:10031000050018D0A5F14100192802D820354FF466
:1003200000673246294620462760FFF73BFF40B171
:10033000012804D0F61D26F007060836D8E7361D3A
:10034000D6E72846DAE7206ABDE8F0812DE9F041DA
:100350000646002410687529314616A510D0AFF363
:100360000080002802DA404213A507E031688A07BE
:1003700001D512A502E0490704D511A5012401E029
:10038000AFF3008000210A2206F1240709E0B0FB48
:10039000F2FCB0FBF2F302FB1C003030785418463C
:1003A000491C0028F3D123462A463046BDE8F041D7
:1003B00000F00CB8000000002D0000002B00000031
:1003C0002000000070477047704770472DE9F047E4
:1003D0000D4699469246044600F1240801688806B5
:1003E00004D5E06921F01001216000E00120A8425D
:1003F00001DD471B00E00027A1697A1902EB090023
:10040000081AA0612078C00602D42046AFF300800D
:10041000002608E0D4E901211AF806009047206A76
:10042000401C761C20624E45F4DB2078C0060AD5BD
:100430002046AFF3008006E0D4E901213020904748
:10044000206A401C2062381EA7F10107F4DC07E097
:10045000D4E9012118F805009047206A401C206269
:10046000281EA5F10105F3DC2046AFF300802078BB
:10047000000602D50220BDE8F0870120FBE700005E
:10048000074B70B50D467B4400F011F80446284632
:1004900000F020F810B14FF0FF3070BD204670BD65
:1004A0004719000001694A1C02610878704700B5CD
:1004B0008FB0CDE901310021059105497944CDE99D
:1004C000031011466846FFF70DFF0FB000BD000096
:1004D000E5FFFFFF007B00F080007047754600F0ED
:1004E0002BF8AE4605006946534620F007008546C6
:1004F00018B020B5FFF77CFEBDE820404FF00006A5
:100500004FF000074FF000084FF0000B21F00701FB
:10051000AC46ACE8C009ACE8C009ACE8C009ACE83E
:10052000C0098D46704710B50446AFF300802046E1
:10053000BDE81040FFF748BE00487047D80F0020C4
:1005400008B500BF20E06A4600211048006800F0AE
:1005500055FA6A4600210E48006800F04FFA0D482F
:100560000078401E0B490870084601780AA0FFF782
:10057000ADFE0648006800F0B7FA1348006800F0C6
:10058000B3FA052001F0C0FBDDE700000800002001
:10059000000000200C000020436F6E73756D6572C3
:1005A0003A20666F6F6420636F6E73756D65642C9F
:1005B0002063757272656E7420636F756E743A2075
:1005C00025640D0A000000000400002008B500BFEB
:1005D00025E06A4600211248006800F00FFA6A46DA
:1005E00000211048006800F009FA0F480078401C0C
:1005F0000D490870084601780CA0FFF767FE08480F
:10060000006800F071FA1548006800F06DFA4FF4C8
:10061000FA6000F0B3F884B2204601F075FBD8E729
:1006200008000020040000200C00002050726F64BD
:10063000756365723A20666F6F642070726F6475BF
:100640006365642C2063757272656E7420636F75C8
:100650006E743A2025640D0A00000000000000209E
:1006600000BFFEE770472DE9F04102460025002655
:10067000002000230024002791F803C00CF00F0590
:1006800091F803C00CF0100CBCF1000F03D091F8EE
:1006900002C04CEA050591F800C0BCF1000F31D052
:1006A000146800202BE04FF0010C0CFA00F3B1F8B5
:1006B00000C00CEA03069E4220D183004FF00F0CCD
:1006C0000CFA03F7BC4305FA03FC4CEA040491F866
:1006D00003C0BCF1280F06D14FF0010C0CFA00FC4E
:1006E000C2F814C00AE091F803C0BCF1480F05D16C
:1006F0004FF0010C0CFA00FCC2F810C0401C082896
:10070000D1D31460B1F800C0BCF1FF0F34DD5468E0
:1007100000202EE000F1080C4FF0010808FA0CF35D
:10072000B1F800C00CEA03069E4221D183004FF0CD
:100730000F0C0CFA03F7BC4305FA03FC4CEA040463
:1007400091F803C0BCF1280F05D100F1080C08FA9C
:100750000CF8C2F8148091F803C0BCF1480F07D11F
:1007600000F1080C4FF0010808FA0CF8C2F81080EC
:10077000401C0828CED35460BDE8F08101464FF0FC
:10078000E0208069084B1B68C2180848504343F2B8
:100790003903184420F0004221B1B2FBF1F001FB13
:1007A000102070471046FCE7100000206D4EC64137
:1007B00000BFFEE700BFFEE77047000070B50021F4
:1007C00000230F22C47804B3154C246804F4E064B9
:1007D000C4F5E064210AC1F10403CA40447804FA74
:1007E00003F184781440214309010E4C0678A15589
:1007F000047804F01F050124AC4005786D11AD00AC
:1008000005F1E025C5F8004109E0047804F01F0572
:100810000124AC40044D0678761145F8264070BDA1
:100820000CED00E000E400E080E100E010B500F035
:1008300013F800F02BFD00F053FD00F073FD00F005
:10084000FBFC00F0CDFC00F007FE00F0ABFD00F07B
:10085000D1FD00F002F810BD7047704706480078DF
:10086000012808D105480078FF2804D20348007801
:10087000401C0249087070476E0000206100002093
:1008800010B500241A480078012830D1FFF7C2FCC7
:1008900004461848007820B116480078401E1549D3
:1008A000087014480078F8B913480078E0B900F0EF
:1008B00035FE12481249097850F8210011490860A4
:1008C0000F4800781049097888420DD00D4800681B
:1008D000806B401C0B49096888630C480068401C09
:1008E0000A490860FFF7B5FC2046FFF797FC10BDEA
:1008F0006E0000206100002062000020700A0020CD
:10090000640000207C0000206300002048000020DC
:1009100010B500240B480078012811D1FFF77AFCAC
:1009200004460948007840B908480078FF2804D2F6
:1009300006480078401C054908702046FFF76EFC09
:1009400010BD00006E000020610000206200002049
:1009500010B5002413480078012821D1FFF75AFC74
:10096000044611480078C0B10F480078401E0E4977
:1009700008700846007860B90C48007828B920460D
:10098000FFF74CFC00F090FD0AE02046FFF746FC24
:1009900006E02046FFF742FC02E02046FFF73EFC5F
:1009A00010BD00006E0000206200002061000020E9
:1009B00070B5054600260F48007808B1002070BDCC
:1009C000FFF728FC06460C480468006820B10A4876
:1009D00000684068084908603046FFF71FFC3CB1DA
:1009E00003202070258100206060204600F0EAFB93
:1009F0002046E4E7610000204C0000202DE9F04192
:100A000005460E46144600272878032803D0012007
:100A10002070BDE8F0813148007810B102202070CC
:100A2000F7E72F48007810B10D202070F1E7FFF7AD
:100A3000F1FB0746288940B12889401E28813846A5
:100A4000FFF7ECFB00202070E3E72648006890F8F1
:100A5000300040F001002349096881F8300000208F
:100A60002049096881F831001E480068C66228469E
:100A700000F06AFB3846FFF7D1FB00F015FDFFF7E9
:100A8000C9FB07461748006890F8310020B10128DB
:100A900009D0022806D102E0002020700BE00E20D1
:100AA000207008E000BF29460E48006800F036FBC1
:100AB0000A20207000BF00BF00200A49096881F8A1
:100AC00030000849096881F8310006490968C861A1
:100AD0003846FFF7A3FB00BF9BE700006100002042
:100AE000620000207400002070B5044600252078C4
:100AF000032801D0012070BDFFF78CFB0546A07ACA
:100B000060B1002301221946204600F0C5FA2846AC
:100B1000FFF784FB00F0C8FC0020ECE720894FF6CB
:100B2000FF71884207D22089401C20812846FFF7A8
:100B300075FB0020DFE72846FFF770FB3320DAE77C
:100B400010B50B48007890B900F0E8FC094800782F
:100B50000949087009480749097850F821000849EF
:100B600008600846006807490860FFF75AFB10BD97
:100B70006E0000206400002063000020700A002046
:100B80007C00002074000020704700002DE9FE4F1B
:100B900006460F4690461C464FF00009FFF73AFB09
:100BA00081461F48007828B14846FFF737FB3C20B4
:100BB000BDE8FE8F1B4850F8240060BB0120194996
:100BC00041F824004846FFF729FB002342463946F6
:100BD000304600F009F9824600200090019003465B
:100BE000024651460290204600F0AEFC054635B95B
:100BF0000D48007801280CD100F056FC09E0FFF701
:100C000009FB81460020074941F824004846FFF7C8
:100C100005FB2846CCE74846FFF700FB2820C7E73E
:100C200061000020700A00206E0000202DE9F04FC6
:100C300085B081468A4693461C46DDE90F78129DB1
:100C400000200390FFF7E6FA03902348007830B1C4
:100C50000398FFF7E3FA3C2005B0BDE8F08F1F488A
:100C600050F8240088BB01201C4941F82400039857
:100C7000FFF7D4FA2A464146384600F075FD2B4668
:100C80005A465146484600F0AFF804901198CDE915
:100C9000008002953A4620460E9B049900F054FCD1
:100CA000064636B90E48007801280CD100F0FCFB4E
:100CB00009E0FFF7AFFA03900020084941F824004B
:100CC0000398FFF7ABFA3046C6E7FFE70398FFF754
:100CD000A5FA2820C0E7000061000020700A00206B
:100CE0006E000020704770472DE9F04106460F4620
:100CF00014464FF000081548007818B112202070F3
:100D0000BDE8F081FFF786FA8046FF2E03D1104838
:100D1000006890F832600F4850F826502DB94046D0
:100D2000FFF77CFA43202070EAE7012D05D1404609
:100D3000FFF774FA43202070E2E7EF644046FFF7C4
:100D40006DFA0020207000BFDAE70000610000208B
:100D500074000020700A0020704700002DE9F04761
:100D600007460D464FF0000A002028606860FFF734
:100D700051FA8246FF2F03D11948006890F832706B
:100D8000184850F827402CB95046FFF747FA43203F
:100D9000BDE8F087012C04D15046FFF73FFA43200D
:100DA000F6E7207C00F0010020B95046FFF736FA44
:100DB0004520EDE70026D4F80C90D4F80880504682
:100DC000FFF72CFA00E0761C58F8041B0029FAD033
:100DD000B0002860A9EB0600800068600020D7E71B
:100DE00074000020700A002070B5044610464FF0D1
:100DF00080750560051F28462C606FF00106051FF1
:100E000028462E604FF01236051F28462E604FF000
:100E10000336051F28462E604FF00236051F284670
:100E20002E607610051F28462E60051F2846296073
:100E30004FF01136051F28462E604FF01036051F63
:100E400028462E604FF00936051F28462E604FF0C9
:100E50000836051F28462E604FF00736051F284626
:100E60002E604FF00636051F28462E604FF00536DF
:100E7000051F28462E604FF00436051F28462E60B9
:100E800070BD00002DE9F04105464FF00008FFF766
:100E9000C1F98046FF2D05D12048006890F83250F6
:100EA000012608E01D48006890F83200A84201D1F0
:100EB000012600E000261A4850F825402CB940468B
:100EC000FFF7ACF94820BDE8F081012C04D1404681
:100ED000FFF7A4F94320F6E794F834701148C05D99
:100EE00094F8351088430F49C8550846C05D30B99D
:100EF00094F836100C48007888430B49087094F831
:100F0000300040F0080084F830004046FFF786F9D2
:100F1000012E01D100F0C8FA0020D4E774000020AF
:100F2000700A002066000020650000207047000065
:100F300070B5054600261748007800B170BD164808
:100F4000007800B1FAE71DB3FFF764F906461348CD
:100F5000006890F834401248005D1049096891F823
:100F6000351088430E4908550846005D40B90B48C6
:100F7000006890F836100B480078884309490870DB
:100F800006480068C5623046FFF748F900F08CFA61
:100F900000BFD3E761000020620000207400002041
:100FA000660000206500002070B5002600F072F891
:100FB000FFF730F9064631480068401C2F490860A9
:100FC0003046FFF72BF92E480078012853D12D48E1
:100FD000007820B1012804D0022809D103E00125BE
:100FE0000BE0002509E0012501202649087004E0F6
:100FF000012500202349087000BF00BF05B970BD5E
:101000002148046833E0FFF705F90646E06A50B36B
:10101000E06A401EE062E06A28BB94F8300000F00D
:10102000370040B114F8300F00F0C80020700120E4
:101030006070303C02E0002084F8310094F8300009
:1010400000F0080078B93434A078104909780843D2
:101050000E49087020780E49085C6178084314F83E
:1010600034190B4A505464693046FFF7D7F894F8A6
:1010700032003F28C7D100BFC1E700008C0000202C
:101080006E00002084000020800000206500002009
:1010900066000020704700002DE9F04F05460F461E
:1010A00090469946A87A19490E5C05F10B00805DBF
:1010B00011F800B00BEBC60000F0FF0A144850F81E
:1010C0002A4000202034E0602760207C20EA0800CD
:1010D000207484F81190207C203C00F0080068B94E
:1010E00094F836000B49097808430A4908700A4801
:1010F000805D94F8351008430749885529462046F5
:1011000000F00CF85046BDE8F08F0000341F0008D6
:10111000700A0020650000206600002010B590F8DD
:10112000342001F10B039B5C90F83540A34301F19F
:101130000B04A35423469B5C23B98B7A90F836406A
:10114000A3438B7210BD000010B51B4A1268D0611A
:10115000194A126892F8343000F10B02D25C164B37
:101160001B6893F835301A43134B1B6893F83440CF
:1011700000F10B031A55827A0F4B1B6893F8363037
:101180001A4382720C4A126892F834100B4A525C6D
:10119000094B1B6893F835309A43084B5A541A464A
:1011A000525C42B9044A126892F83630044A127806
:1011B0009A43034B1A7010BD740000206600002093
:1011C00065000020014600228A72002005E000230D
:1011D00001F10B021354421CD0B20828F7D3704718
:1011E0002DE9F0415021114800F02CF900250DE0C7
:1011F000681C86B20D4800EB051400EB06170020B2
:10120000207067600AA0E060681C85B2042DEFD3EF
:10121000064800EB051400202070606004A0E06028
:10122000024804490860BDE8F08100002006002063
:101230003F0000005000002070B5C821114800F0A8
:1012400001F900230FE0581C85B203EB83000D4920
:1012500001EB800405EB850001EB80060020207087
:101260006660581C83B2092BEDD303EB830005495C
:1012700001EB80040020207060600846024908608D
:1012800070BD0000580500204C00002000200A49D5
:1012900008600A4908700A4908700A4908700A4932
:1012A00008700A4908600A4908600A4908600A4942
:1012B00008600A49087070478C0000206100002017
:1012C000620000206F0000206E0000204800002017
:1012D000700000205C00002058000020600000200A
:1012E00000210A4A1170002004E00021084A11542C
:1012F000411CC8B20828F8D30021064A1170064ADA
:101300001170064A1160064A11607047650000209E
:101310006600002063000020640000207C000020A4
:101320007400002070B54FF47C71194800F08AF801
:101330004FF48071174800F085F8002413E0601C1A
:10134000C5B2C4EBC40000EB4000114901EB8003BF
:10135000C5EBC50000EB400001EB80065E610EA00E
:10136000D864601CC4B20B2CE9D3C4EBC40000EBFE
:101370004000074901EB80030020586106A0D864B3
:1013800000200649086002480549086070BD000059
:10139000700B0020700A00203F0000008000002039
:1013A0007800002000B587B00320002180220A4B7E
:1013B000CDE90132CDE903104FF6FF703F23074A14
:1013C00000900748FFF732FC06AA06A13F20FFF76E
:1013D0008BFC07B000BD0000700800206C0A0020E4
:1013E0007D16000875432F4F532D49492049646CE1
:1013F0006500000000B587B00320002180220A4B61
:10140000CDE90132CDE903104FF6FE703E23074AC5
:1014100000900748FFF70AFC06AA06A13E20FFF746
:1014200063FC07B000BD0000700600206C080020BF
:10143000A516000875432F4F532D49492053746159
:101440007400000004E0002200F8012B4A1E91B253
:101450000029F8D1704700002DE9F04178211048AB
:10146000FFF7F0FF00240DE0601C86B204EB44009F
:101470000B4901EBC00506EB460001EBC0072F60EE
:10148000601C84B2042CEFD304EB4400044901EB4C
:10149000C00500202860084602490860BDE8F081C8
:1014A000600F00208800002010B50024FEF7B2FE77
:1014B000044613480078F8B912480078E0B900F003
:1014C0002DF811481149097850F821001049086099
:1014D0000E4800780F49097888420DD00C48006802
:1014E000806B401C0A49096888630B480068401CEF
:1014F00009490860FEF7A6FE2046FEF78FFE10BDE4
:101500006100002062000020700A002064000020BA
:101510007C00002063000020480000200649074AA4
:101520001278885C0649095C034A515C01EBC001F2
:10153000044A117070470000341F00086500002045
:1015400066000020640000202DE9F84F05460F4694
:1015500090469946DDE90AAB00200090FEF75AFE5E
:1015600000903F480468002C74D0183454F8040CE0
:101570003B4908600098FEF751FE44F8187CA576B8
:10158000002020766076606144F814BC44F80CAC0E
:1015900044F8108C0C9824F8080C24F8069C0020C1
:1015A000E077E810207705F00700E076217F012042
:1015B0008840A077E17E012088406077002060604D
:1015C000E060A0602062A0626062E062206325A00B
:1015D0006063183C002606E0002104F1500040F84A
:1015E0002610701CC6B2002EF6D02046FFF7CCFAAB
:1015F0002046FFF777FBFEF70DFE00901A4840F8F3
:1016000025401A48006860610020A0611748006802
:1016100010B1164800688461144804603434A0781E
:101620001349097808431249087020781149085C69
:101630006178084314F834190E4A50540E48007863
:10164000401C0D4908700098FEF7E8FD0020BDE839
:10165000F88FFFE70098FEF7E1FD4220F7E7000072
:10166000780000203F000000700A00208000002069
:1016700065000020660000206F000020002400BFED
:1016800000BFFEF7C7FD044605480068401C04493A
:1016900008602046FEF7C2FDFFF725FBF1E70000DA
:1016A00070000020002400BF02E02820FFF740FC6B
:1016B000194800780028F8D0184800686421B0FB69
:1016C000F1F0164908600846006828B9002014495E
:1016D0000870FF20FFF7D6FB00BFFEF79BFD044616
:1016E000104800681049086000200E490860204634
:1016F000FEF794FD0C48006808490968B0FBF1F05A
:10170000C0F1640006490870FFF726FB00F00EF8F0
:101710001420FFF70DFCE0E76000002058000020D7
:1017200054000020700000205C0000207CB50025E3
:1017300014E069462846FFF711FB064666B90948DA
:1017400050F8254044B1012C06D0D4E9020100EB49
:10175000810060640198A064681CC5B23F2DE8D97F
:101760007CBD0000700A002002F0010343B102F0CA
:1017700002032BB102E0491E002308C00029FAD160
:101780007047000029B1064A92690243044B9A61EE
:1017900004E0034A92698243014B9A61704700005A
:1017A0000010024030B500210022002400232D4DFE
:1017B0006D6805F00C0121B1042905D0082923D159
:1017C00005E0294D056022E0274D05601FE0254D0D
:1017D0006D6805F47012234D6D6805F480340225A0
:1017E00005EB92421CB9214D554305600BE01D4DA0
:1017F0006D6805F400351DB11C4D5543056002E0D0
:10180000194D5543056002E0174D056000BF00BF4C
:10181000144D6D6805F0F0010909154D6B5C056804
:10182000DD4045600F4D6D6805F4E061090A104D1B
:101830006B5C4568DD4085600A4D6D6805F460515C
:10184000C90A0B4D6B5C4568DD40C560054D6D6890
:1018500005F44041890B074D6B5CC568B5FBF3F59A
:10186000056130BD0010024000127A0000093D0001
:101870003200002042000020704710B500F002F84E
:1018800010BD00000CB500200190009033480068A6
:1018900040F480303149086000BF3048006800F4EF
:1018A000003000900198401C0190009818B90198F0
:1018B000B0F5A06FF1D12948006800F4003010B1F4
:1018C0000120009001E0002000900098012843D101
:1018D0002348006840F0100021490860084600686D
:1018E00020F0030008600846006840F0020008602D
:1018F0001A484068194948600846406848600846E8
:10190000406840F4806048600846406820F47C10DD
:1019100048600846406840F4E8104860084600689F
:1019200040F08070086000BF0C48006800F0007054
:101930000028F9D00948406820F0030007494860B2
:101940000846406840F00200486000BF0348406815
:1019500000F00C000828F9D10CBD00000010024076
:1019600000200240042808D14FF0E021096941F02D
:1019700004014FF0E022116107E04FF0E021096916
:1019800021F004014FF0E0221161704710B50848C2
:101990000068401C0649086006480078012805D107
:1019A000FEF75CFFFFF700FBFEF76AFF10BD0000CB
:1019B000100000206E00002030B5144800684FF47D
:1019C0007A72B0FBF2F1B1F1807F00D31DE021F01B
:1019D0007F40401E4FF0E022506150170F22002838
:1019E00007DA13071D0E0A4B00F00F04241F1D55C4
:1019F00003E013071C0E074B1C5400BF00204FF0E0
:101A0000E02290610720106100BF30BD140000206B
:101A100018ED00E000E400E010B51348006840F065
:101A200001001149086008464068104908400E4905
:101A30004860084600680E4908400B49086008469F
:101A4000006820F4802008600846406820F4FE000A
:101A500048604FF41F008860FFF70FFF4FF00060F1
:101A60000449086010BD0000001002400000FFF8AB
:101A7000FFFFF6FE08ED00E010B5FEF7EFFE40F2C6
:101A800025511E4800F04CF810B31C4800F004F932
:101A9000C4B21B48008800F40040C8B91848008848
:101AA00000F4804060B10A2C03D000201449088063
:101AB00020E01348008840F400401149088019E0F4
:101AC0000D2C06D10E48008840F480400C49088057
:101AD00010E00B480088C0F30D000A490C54084878
:101AE0000088401C0649088008460088C72801DD98
:101AF00000200880FEF7C4FE10BD00000038014041
:101B0000300000209004002021B1828942F400526C
:101B1000828104E082894DF6FF731A40828170470A
:101B200070B50246002400230025002040F66A1606
:101B3000B14200D100BFC1F3421501F01F030126DD
:101B400006FA03F3012D02D19689334006E0022DF7
:101B500002D1168A334001E0968A33400C120126E6
:101B600006FA04F41688344013B10CB1012000E0E9
:101B7000002070BDF0B5034600240026002500209B
:101B800040F66A17B94200D100BF1846C1F34214AB
:101B900001F01F06012707FA06F5012C01D10C30D0
:101BA00004E0022C01D1103000E014301AB10768B3
:101BB0002F43076002E00768AF430760F0BD0000F5
:101BC0002DE9F04786B005460E460024A24600BF28
:101BD000A1460027B08900B100BF2F462C8A4CF6E1
:101BE000FF700440F08804432C82AC894EF6F31059
:101BF0000440B08831890843718908430443AC81AB
:101C0000AC8A4FF6FF400440B0890443AC8201A87F
:101C1000FFF7C8FD1F48874202D1DDF810A001E0A0
:101C2000DDF80CA0A88900F4004040B10AEBCA001E
:101C300000EB0A1031684900B0FBF1F807E00AEB4D
:101C4000CA0000EB0A1031688900B0FBF1F864208B
:101C5000B8FBF0F004012009642101FB1089A88978
:101C600000F4004040B1322000EBC900B0FBF1F0BD
:101C700000F00700044308E0322000EB0910642163
:101C8000B0FBF1F000F00F0004432C8106B0BDE87A
:101C9000F08700000038014001468888C0F3080042
:101CA000704700BFFEE700BF7047000010B56FF03F
:101CB0000400FFF757FE104800681049B0FBF1F030
:101CC0000F4908700C4800680C49B0FBF1F441F270
:101CD0008830444305200B4908804FF0E02000691C
:101CE00040F002004FF0E0210861084644610069BD
:101CF00040F00100086110BD1400002000127A00BD
:101D0000280000202A00002070B504460F48007803
:101D1000A0B10F48007888B90E480088844206DBDD
:101D20000C48008894FBF0F5284600F01DF809489F
:101D3000008894FBF0F100FB114084B24FF47A71FB
:101D400004FB01F000F016F870BD00006E000020EA
:101D5000610000202A00002010B5FEF7D9FD10BD5B
:101D600010B5FEF7F5FD10BD10B504462046FFF78F
:101D7000DFF810BD2DE9F047074600264FF0E020C0
:101D8000D0F814901148007807FB00F800BFFFF767
:101D9000E3FF4FF0E020856911E04FF0E020846917
:101DA000AC420CD0AC4202D2281B064403E0A9EBA3
:101DB0000400284406442546464500D300E0ECE7ED
:101DC00000BFFFF7CDFFBDE8F0870000280000202E
:101DD00000BF054A128802F04002002AF9D0C2B2C0
:101DE000014B1B1D1A8070470038014010B54FF49D
:101DF000E13000F04FF8FFF759FFFFF7DDFD13A0CA
:101E0000FEF764FAFEF712FD0020FEF7D1FD15493A
:101E100008601420FEF7CCFD134908600120FEF78E
:101E2000C7FD124908600B23114A00211148FEF733
:101E3000ADFE0C23104A00211048FEF7A7FE10A0AB
:101E4000FEF744FAFEF77CFE002010BD5379737450
:101E5000656D20696E697469616C697A6564200DCD
:101E60000A000000000000200400002008000020FC
:101E70008C020020CD0500088C04002041050008DC
:101E8000416C6C207461736B73206372656174655F
:101E9000640D0A0010B586B00446012144F2040026
:101EA000FFF770FC4FF40070ADF8140003208DF8BC
:101EB000160018208DF8170005A91C48FEF7D3FB63
:101EC0004FF48060ADF8140004208DF8170005A9C8
:101ED0001648FEF7C8FB25208DF8000003208DF87A
:101EE00001008DF8020001208DF803006846FEF71E
:101EF00065FC01940020ADF80800ADF80A00ADF8CB
:101F00000C00ADF810000C20ADF80E0001A9084837
:101F1000FFF756FE012240F225510548FFF72AFE41
:101F200001210348FFF7F0FD06B010BD0008014095
:101F30000038014000000100020001000300010020
:101F40000200010004000100020001000300010082
:101F50000200010005000100020001000300010071
:101F60000200010004000100020001000300010062
:101F70000200010006000100020001000300010050
:101F80000200010004000100020001000300010042
:101F90000200010005000100020001000300010031
:101FA0000200010004000100020001000300010022
:101FB000020001000700010002000100030001000F
:101FC0000200010004000100020001000300010002
:101FD00002000100050001000200010003000100F1
:101FE00002000100040001000200010003000100E2
:101FF00002000100060001000200010003000100D0
:1020000002000100040001000200010003000100C1
:1020100002000100050001000200010003000100B0
:1020200002000100040001000200010003000100A1
:102030000200010054200008000000209000000071
:102040006C010008E420000890000020A8150000A2
:1020500088010008000000000000000000000000EF
:10206000000000000000000000A24A040000000080
:102070000000000001020304060708090000000038
:102080000000000000000000000001020304010243
:102090000304060708090204060800000000000007
:1020A0000000000000000000000000000000000030
:1020B0000000000000000000000000000000000020
:1020C0000000000000000000000000000000000010
:1020D0000000000000000000000000000000000000
:0420E00000000000FC
:04000005080001D519
:00000001FF
