:020000040800F2
:1000000010180020CD0100080905000801050008AE
:1000100005050008310300087F16000800000000F5
:1000200000000000000000000000000001140008B3
:1000300035030008000000005B02000815150008E9
:10004000E7010008E7010008E7010008E7010008F0
:10005000E7010008E7010008E7010008E7010008E0
:10006000E7010008E7010008E7010008E7010008D0
:10007000E7010008E7010008E7010008E7010008C0
:10008000E7010008E7010008E7010008E7010008B0
:10009000E7010008E7010008E7010008E7010008A0
:1000A000E7010008E7010008E7010008E701000890
:1000B000E7010008E7010008E7010008E701000880
:1000C000E7010008E7010008E7010008E701000870
:1000D000E701000891150008E7010008E7010008A2
:1000E000E7010008E7010008E7010008E701000850
:1000F000E7010008E7010008E7010008E701000840
:10010000E7010008E7010008E7010008E70100082F
:10011000E7010008E7010008E7010008E70100081F
:10012000E7010008E7010008E7010008E70100080F
:1001300000F002F800F03AF80AA090E8000C8244BF
:100140008344AAF10107DA4501D100F02FF8AFF29C
:10015000090EBAE80F0013F0010F18BFFB1A43F0A5
:10016000010318474818000068180000103A24BF1F
:1001700078C878C1FAD8520724BF30C830C144BF0C
:1001800004680C607047000000230024002500264E
:10019000103A28BF78C1FBD8520728BF30C148BFEA
:1001A0000B6070471FB51FBD10B510BD00F08DF876
:1001B0001146FFF7F7FF01F04FFB00F0ABF803B477
:1001C000FFF7F2FF03BC01F05CFA0000094880472A
:1001D00009480047FEE7FEE7FEE7FEE7FEE7FEE729
:1001E000FEE7FEE7FEE7FEE704480549054A064B41
:1001F000704700003115000831010008101200207E
:10020000101800201014002010140020EFF31080AC
:1002100072B6704780F310887047204C204D2560DF
:100220004FF0000484F309881E4C4FF0010525703F
:100230001D4C4FF08055256062B6FEE730B41A4C75
:100240004FF08055256030BC704730B4164C4FF0ED
:100250008055256030BC704700BF72B6EFF309804F
:1002600028B1203880E8F00F10490968086000B50F
:100270000F4880475DF804EB0E480F490A7802707A
:100280000A480E490A680260106890E8F00F2030B2
:1002900080F309884EF0040E62B6704720ED00E04E
:1002A0000000FFFF4600002004ED00E04C000020AD
:1002B000810C00083B0000203C000020540000207E
:1002C00070477047704770477047754600F02CF8CC
:1002D000AE4605006946534620F00700854618B033
:1002E00020B5FFF781FFBDE820404FF000064FF03A
:1002F00000074FF000084FF0000B21F00701AC465B
:10030000ACE8C009ACE8C009ACE8C009ACE8C00979
:100310008D46704710B50446AFF300802046BDE817
:100320001040FFF74CBF000000487047B01100209C
:1003300000BFFEE77047000008B50121102001F062
:100340004FF80121082001F04BF80121042001F0B1
:1003500047F80121402001F043F82020ADF80000CB
:1003600010208DF8030003208DF80200694615481F
:1003700000F02EF86946144800F02AF84FF4807017
:10038000ADF8000010208DF8030003208DF8020066
:1003900069460C4800F01CF848208DF8030018202E
:1003A000ADF800006946084800F012F828208DF8E2
:1003B00003000120ADF800006946044800F008F889
:1003C00008BD0000000C0140001801400008014079
:1003D0002DE9F041024600250026002000230024DC
:1003E000002791F803C00CF00F0591F803C00CF042
:1003F000100CBCF1000F03D091F802C04CEA0505C7
:1004000091F800C0BCF1000F31D0146800202BE03F
:100410004FF0010C0CFA00F3B1F800C00CEA03062F
:100420009E4220D183004FF00F0C0CFA03F7BC431F
:1004300005FA03FC4CEA040491F803C0BCF1280F50
:1004400006D14FF0010C0CFA00FCC2F814C00AE00F
:1004500091F803C0BCF1480F05D14FF0010C0CFA24
:1004600000FCC2F810C0401C0828D1D31460B1F8B9
:1004700000C0BCF1FF0F34DD546800202EE000F115
:10048000080C4FF0010808FA0CF3B1F800C00CEAB0
:1004900003069E4221D183004FF00F0C0CFA03F7A4
:1004A000BC4305FA03FC4CEA040491F803C0BCF118
:1004B000280F05D100F1080C08FA0CF8C2F81480D6
:1004C00091F803C0BCF1480F07D100F1080C4FF0C0
:1004D000010808FA0CF8C2F81080401C0828CED396
:1004E0005460BDE8F0810246002093680B400BB1D8
:1004F000012000E0002070474161704701617047B2
:1005000000BFFEE700BFFEE7704710B500F013F82C
:1005100000F0EAFC00F012FD00F032FD00F0BAFC41
:1005200000F07AFC00F0C6FD00F06AFD00F090FDDE
:1005300000F002F810BD70477047000006480078D0
:10054000012808D105480078FF2804D20348007824
:10055000401C024908707047460000203900002006
:1005600010B500241A480078012830D1FFF74EFE5C
:1005700004461848007820B116480078401E1549F6
:10058000087014480078F8B913480078E0B900F012
:10059000F3FD12481249097850F82100114908600A
:1005A0000F4800781049097888420DD00D4800683E
:1005B000806B401C0B49096888630C480068401C2C
:1005C0000A490860FFF741FE2046FFF723FE10BDF1
:1005D00046000020390000203A000020480C00208E
:1005E0003C000020540000203B00002020000020A0
:1005F00010B500240B480078012811D1FFF706FE42
:1006000004460948007840B908480078FF2804D219
:1006100006480078401C054908702046FFF7FAFD9F
:1006200010BD000046000020390000203A000020E4
:1006300010B5002413480078012821D1FFF7E6FD0A
:10064000044611480078C0B10F480078401E0E499A
:1006500008700846007860B90C48007828B9204630
:10066000FFF7D8FD00F04EFD0AE02046FFF7D2FD6F
:1006700006E02046FFF7CEFD02E02046FFF7CAFD68
:1006800010BD0000460000203A0000203900002084
:1006900010B50B48007890B900F06EFD094800785D
:1006A0000949087009480749097850F821000849A4
:1006B00008600846006807490860FFF7AEFD10BDF6
:1006C000460000203C0000203B000020480C002099
:1006D000540000204C000020704700002DE9FE4F20
:1006E00006460F4690461C464FF00009FFF78EFD68
:1006F00081461F48007828B14846FFF78BFD3C2013
:10070000BDE8FE8F1B4850F8240060BB012019494A
:1007100041F824004846FFF77DFD00234246394654
:10072000304600F00BFA824600200090019003460C
:10073000024651460290204600F034FD054635B988
:100740000D48007801280CD100F0DCFC09E0FFF72F
:100750005DFD81460020074941F824004846FFF727
:1007600059FD2846CCE74846FFF754FD2820C7E747
:1007700039000020480C0020460000202DE9F04FF1
:1007800085B081468A4693461C46DDE90F78129D66
:1007900000200390FFF73AFD03902348007830B122
:1007A0000398FFF737FD3C2005B0BDE8F08F1F48E8
:1007B00050F8240088BB01201C4941F8240003980C
:1007C000FFF728FD2A464146384600F0FBFD2B4640
:1007D0005A465146484600F0B1F904901198CDE9C7
:1007E000008002953A4620460E9B049900F0DAFC00
:1007F000064636B90E48007801280CD100F082FC7C
:1008000009E0FFF703FD03900020084941F82400A8
:100810000398FFF7FFFC3046C6E7FFE70398FFF7B2
:10082000F9FC2820C0E7000039000020480C002017
:1008300046000020704700002DE9F04105460027E2
:100840004748007810B14020BDE8F0813F2D01D12C
:100850003E20F9E7FFF7DAFC0746FF2D03D14148B8
:10086000006890F83250404850F8254024B9384686
:10087000FFF7D0FC4320E7E7012C04D13846FFF70F
:10088000C9FC3D20E0E714F8340F3849085C617872
:1008900088432178354A505414F834091146085CCD
:1008A00030B994F8361032480078884330490870DF
:1008B000E06918B12046E16900F098FA666A16B15D
:1008C000304600F0D5FA0020E06284F8300084F869
:1008D000310028480078FF2804D226480078401CC0
:1008E000244908703846FFF795FC00F07EFAFFF7C0
:1008F0008DFC07461F48007820B11E480078401E36
:100900001C490870204600F041F81B480078401E42
:10091000194908700020144941F82500A06930B930
:1009200000206169886115496069086005E0D4E9C3
:1009300005014861D4E905108861114800686061CB
:100940000F4804600FA0E0643846FFF763FC0E48D0
:100950000078012801D100F0D5FB002074E70000E9
:10096000390000204C000020480C00203E000020F0
:100970003D0000203A0000204700002058000020E1
:10098000500000203F0000004600002070477047E4
:100990002DE9F04106460F4614464FF00008154871
:1009A000007818B112202070BDE8F081FFF72EFC0E
:1009B0008046FF2E03D11048006890F832600F483F
:1009C00050F826502DB94046FFF724FC43202070F4
:1009D000EAE7012D05D14046FFF71CFC43202070BB
:1009E000E2E7EF644046FFF715FC0020207000BFEF
:1009F000DAE70000390000204C000020480C0020FD
:100A000070B505460026FFF701FC0646234850F85E
:100A1000254024B93046FFF7FDFB462070BD012C70
:100A200004D13046FFF7F6FB4320F7E794F8300097
:100A300000F0080060B314F8300F00F0F7002070E9
:100A400014F83009F8B9E06AC8B93434A078144908
:100A5000097808431249087020781249085C6178C7
:100A6000084314F834190F4A50543046FFF7D2FBAC
:100A70000D480078012809D100F044FB06E030461B
:100A8000FFF7C8FB02E03046FFF7C4FB0020C5E7D4
:100A90003046FFF7BFFB4420C0E70000480C0020B1
:100AA0003D0000203E00002046000020704700006E
:100AB0002DE9F04707460D464FF0000A0020286058
:100AC0006860FFF7A3FB8246FF2F03D11948006837
:100AD00090F83270184850F827402CB95046FFF76C
:100AE00099FB4320BDE8F087012C04D15046FFF765
:100AF00091FB4320F6E7207C00F0010020B950462E
:100B0000FFF788FB4520EDE70026D4F80C90D4F8D9
:100B100008805046FFF77EFB00E0761C58F8041B67
:100B20000029FAD0B0002860A9EB060080006860B8
:100B30000020D7E74C000020480C002070B5044688
:100B400010464FF080750560051F28462C606FF039
:100B50000106051F28462E604FF01236051F284655
:100B60002E604FF00336051F28462E604FF00236E8
:100B7000051F28462E607610051F28462E60051F8B
:100B8000284629604FF01136051F28462E604FF089
:100B90001036051F28462E604FF00936051F2846DF
:100BA0002E604FF00836051F28462E604FF007369E
:100BB000051F28462E604FF00636051F28462E607A
:100BC0004FF00536051F28462E604FF00436051FEE
:100BD00028462E6070BD00002DE9F04105464FF01B
:100BE0000008FFF713FB8046FF2D05D12048006861
:100BF00090F83250012608E01D48006890F8320055
:100C0000A84201D1012600E000261A4850F82540EC
:100C10002CB94046FFF7FEFA4820BDE8F081012CD0
:100C200004D14046FFF7F6FA4320F6E794F8347013
:100C30001148C05D94F8351088430F49C8550846DF
:100C4000C05D30B994F836100C48007888430B49E1
:100C5000087094F8300040F0080084F830004046F6
:100C6000FFF7D8FA012E01D100F04CFA0020D4E7AA
:100C70004C000020480C00203E0000203D000020D9
:100C80007047000070B5054600261748007800B18F
:100C900070BD1648007800B1FAE71DB3FFF7B6FA49
:100CA00006461348006890F834401248005D104929
:100CB000096891F8351088430E4908550846005DCB
:100CC00040B90B48006890F836100B48007888430C
:100CD0000949087006480068C5623046FFF79AFA6D
:100CE00000F010FA00BFD3E7390000203A000020DE
:100CF0004C0000203E0000203D00002070B5002682
:100D000000F072F8FFF782FA064631480068401C8E
:100D10002F4908603046FFF77DFA2E4800780128F9
:100D200053D12D48007820B1012804D0022809D1E0
:100D300003E001250BE0002509E0012501202649FB
:100D4000087004E0012500202349087000BF00BF9F
:100D500005B970BD2148046833E0FFF757FA06462D
:100D6000E06A50B3E06A401EE062E06A28BB94F893
:100D7000300000F0370040B114F8300F00F0C80028
:100D8000207001206070303C02E0002084F83100C7
:100D900094F8300000F0080078B93434A078104995
:100DA000097808430E49087020780E49085C61787C
:100DB000084314F834190B4A505464693046FFF75D
:100DC00029FA94F832003F28C7D100BFC1E70000DC
:100DD00064000020460000205C0000205800002035
:100DE0003D0000203E0000207047704710B590F88D
:100DF000342001F10B039B5C90F83540A34301F1D3
:100E00000B04A35423469B5C23B98B7A90F836409D
:100E1000A3438B7210BD00002DE9F0415021114811
:100E200000F03EF900250DE0681C86B20D4800EB8D
:100E3000051400EB06170020207067600AA0E06030
:100E4000681C85B2042DEFD3064800EB0514002082
:100E50002070606004A0E060024804490860BDE8BA
:100E6000F0810000F80700203F000000280000206B
:100E700030B501464A6808682AB9CC68606028B174
:100E80000025456002E0106000B142608B680025DB
:100E90005D6230BD70B5C821114800F001F9002332
:100EA0000FE0581C85B203EB83000D4901EB800471
:100EB00005EB850001EB8006002020706660581C61
:100EC00083B2092BEDD303EB8300054901EB8004CA
:100ED00000202070606008460249086070BD000074
:100EE000300700202400002000200A4908600A4939
:100EF00008700A4908700A4908700A4908700A49C6
:100F000008600A4908600A4908600A4908600A49F5
:100F10000870704764000020390000203A0000206B
:100F2000470000204600002020000020480000204C
:100F300034000020300000203800002000210A4A40
:100F40001170002004E00021084A1154411CC8B26D
:100F50000828F8D30021064A1170064A1170064A83
:100F60001160064A116070473D0000203E000020DD
:100F70003B0000203C000020540000204C000020DA
:100F800070B54FF47C71194800F08AF84FF4807105
:100F9000174800F085F8002413E0601CC5B2C4EBCC
:100FA000C40000EB4000114901EB8003C5EBC50014
:100FB00000EB400001EB80065E610EA0D864601C6F
:100FC000C4B20B2CE9D3C4EBC40000EB40000749CA
:100FD00001EB80030020586106A0D8640020064978
:100FE000086002480549086070BD0000480D0020F7
:100FF000480C00203F000000580000205000002056
:1010000000B587B00320002180220A4BCDE90132D0
:10101000CDE903104FF6FF703F23074A00900748C1
:10102000FFF7ACFB06AA06A13F20FFF7B1FC07B013
:1010300000BD0000480A0020440C0020D91200081E
:1010400075432F4F532D49492049646C65000000BA
:1010500000B587B00320002180220A4BCDE9013280
:10106000CDE903104FF6FE703E23074A0090074873
:10107000FFF784FB06AA06A13E20FFF789FC07B014
:1010800000BD000048080020440A002001130008A9
:1010900075432F4F532D494920537461740000004C
:1010A00004E0002200F8012B4A1E91B20029F8D179
:1010B000704700002DE9F04178211048FFF7F0FF5C
:1010C00000240DE0601C86B204EB44000B4901EBE8
:1010D000C00506EB460001EBC0072F60601C84B220
:1010E000042CEFD304EB4400044901EBC0050020BD
:1010F0002860084602490860BDE8F08138110020E8
:101100006000002010B50024FFF780F80446134863
:101110000078F8B912480078E0B900F02DF81148CD
:101120001149097850F82100104908600E480078EC
:101130000F49097888420DD00C480068806B401C2C
:101140000A49096888630B480068401C094908601F
:10115000FFF774F82046FFF75DF810BD3900002056
:101160003A000020480C00203C00002054000020E1
:101170003B000020200000200649074A1278885CC6
:101180000649095C034A515C01EBC001044A117035
:1011900070470000AC1800083D0000203E00002011
:1011A0003C0000202DE9F84F05460F469046994631
:1011B000DDE90AAB00200090FFF728F800903F48D7
:1011C0000468002C74D0183454F8040C3B490860AF
:1011D0000098FFF71FF844F8187CA57600202076C9
:1011E0006076606144F814BC44F80CAC44F8108C90
:1011F0000C9824F8080C24F8069C0020E077E810EE
:10120000207705F00700E076217F01208840A07755
:10121000E17E01208840607700206060E060A0608F
:101220002062A0626062E062206325A06063183CD7
:10123000002606E0002104F1500040F82610701C42
:10124000C6B2002EF6D02046FFF746FA2046FFF73A
:10125000F1FAFEF7DBFF00901A4840F825401A48E3
:10126000006860610020A0611748006810B116484E
:1012700000688461144804603434A0781349097804
:1012800008431249087020781149085C61780843C6
:1012900014F834190E4A50540E480078401C0D4979
:1012A00008700098FEF7B6FF0020BDE8F88FFFE752
:1012B0000098FEF7AFFF4220F7E700005000002043
:1012C0003F000000480C0020580000203D00002096
:1012D0003E00002047000020002400BF00BFFEF7B2
:1012E00095FF044605480068401C044908602046F4
:1012F000FEF790FFFFF74BFBF1E7000048000020EE
:10130000002400BF02E02820FFF7BCFC1948007849
:101310000028F8D0184800686421B0FBF1F01649A5
:1013200008600846006828B9002014490870FF20AA
:10133000FFF752FC00BFFEF769FF04461048006843
:101340001049086000200E4908602046FEF762FF41
:101350000C48006808490968B0FBF1F0C0F164006E
:1013600006490870FFF7A2FB00F00EF81420FFF703
:1013700089FCE0E738000020300000202C0000202D
:1013800048000020340000207CB5002514E06946A8
:101390002846FFF78DFB064666B9094850F82540F8
:1013A00044B1012C06D0D4E9020100EB8100606455
:1013B0000198A064681CC5B23F2DE8D97CBD00002F
:1013C000480C002002F0010343B102F002032BB1EC
:1013D00002E0491E002308C00029FAD1704700002E
:1013E00029B1064A92690243044B9A6104E0034A18
:1013F00092698243014B9A617047000000100240DD
:10140000704710B500F002F810BD00000CB50020C8
:10141000019000903348006840F480303149086002
:1014200000BF3048006800F4003000900198401C74
:101430000190009818B90198B0F5A06FF1D1294832
:10144000006800F4003010B10120009001E000209D
:1014500000900098012843D12348006840F0100014
:10146000214908600846006820F00300086008462B
:10147000006840F0020008601A4840681949486056
:101480000846406848600846406840F4806048600C
:101490000846406820F47C1048600846406840F4E4
:1014A000E81048600846006840F08070086000BF9F
:1014B0000C48006800F000700028F9D00948406826
:1014C00020F00300074948600846406840F00200E9
:1014D000486000BF0348406800F00C000828F9D1BC
:1014E0000CBD00000010024000200240042808D17A
:1014F0004FF0E021096941F004014FF0E022116151
:1015000007E04FF0E021096921F004014FF0E022EB
:101510001161704710B505480078012805D1FFF723
:101520000DF8FFF7EBFBFFF71BF810BD460000209E
:1015300010B51348006840F00100114908600846E2
:101540004068104908400E494860084600680E4946
:1015500008400B4908600846006820F480200860B5
:101560000846406820F4FE0048604FF41F00886081
:10157000FFF747FF4FF000600449086010BD00000E
:10158000001002400000FFF8FFFFF6FE08ED00E04B
:1015900010B5FEF7D3FF40F225511E4800F040F889
:1015A00010B31C4800F066F8C4B21B48008800F471
:1015B0000040C8B91848008800F4804060B10A2C87
:1015C00003D000201449088020E01348008840F42C
:1015D00000401149088019E00D2C06D10E48008802
:1015E00040F480400C49088010E00B480088C0F3AC
:1015F0000D000A490C5408480088401C0649088020
:1016000008460088C72801DD00200880FEF7A8FFF3
:1016100010BD0000003801401C00002068060020BA
:1016200070B50246002400230025002040F66A160B
:10163000B14200D100BFC1F3421501F01F030126E2
:1016400006FA03F3012D02D19689334006E0022DFC
:1016500002D1168A334001E0968A33400C120126EB
:1016600006FA04F41688344013B10CB1012000E0EE
:10167000002070BD01468888C0F30800704700BF95
:10168000FEE700BF7047000010E04FF4807108488B
:10169000FEF734FF3C2000F03BF84FF48071044823
:1016A000FEF72AFF4FF46B7000F032F8EDE7000010
:1016B000000C014010B56FF00400FFF717FF104851
:1016C00000681049B0FBF1F00F4908700C48006841
:1016D0000C49B0FBF1F441F28830444305200B493A
:1016E00008804FF0E020006940F002004FF0E02158
:1016F000086108464461006940F00100086110BDBE
:101700000000002000127A001400002016000020C3
:1017100070B504460F480078A0B10F48007888B92A
:101720000E480088844206DB0C48008894FBF0F5E4
:10173000284600F01DF80948008894FBF0F100FBF2
:10174000114084B24FF47A7104FB01F000F016F8F6
:1017500070BD000046000020390000201600002067
:1017600010B5FEF745FF10BD10B5FEF761FF10BDC7
:1017700010B504462046FFF785FA10BD2DE9F04765
:10178000074600264FF0E020D0F81490114800786A
:1017900007FB00F800BFFFF7E3FF4FF0E02085698B
:1017A00011E04FF0E0208469AC420CD0AC4202D290
:1017B000281B064403E0A9EB040028440644254600
:1017C000464500D300E0ECE700BFFFF7CDFFBDE8E2
:1017D000F0870000140000201BE010210D48FEF7E8
:1017E00082FE10B90A20FFF7F7F908210948FEF731
:1017F0007AFE10B90A20FFF703F901210648FEF727
:1018000072FE012802D10B20FFF716F86420FFF7C3
:101810007FFFE2E7001801400008014017E02021A7
:101820000B48FEF76BFE20210A48FEF765FE4FF4D9
:10183000FA70FFF76DFF20210648FEF75FFE2021BA
:101840000348FEF759FE4FF4FA70FFF761FFE6E731
:10185000000C01400018014010B5FEF76DFDFFF7C8
:1018600029FFFEF752FE0A230A4A00210A48FEF722
:1018700035FF0B23094A00210948FEF72FFF0C23EF
:10188000084A00210848FEF729FFFEF701FF002063
:1018900010BD0000640200201D1800086404002030
:1018A0008916000864060020D9170008000001000E
:1018B0000200010003000100020001000400010019
:1018C0000200010003000100020001000500010008
:1018D00002000100030001000200010004000100F9
:1018E00002000100030001000200010006000100E7
:1018F00002000100030001000200010004000100D9
:1019000002000100030001000200010005000100C7
:1019100002000100030001000200010004000100B8
:1019200002000100030001000200010007000100A5
:101930000200010003000100020001000400010098
:101940000200010003000100020001000500010087
:101950000200010003000100020001000400010078
:101960000200010003000100020001000600010066
:101970000200010003000100020001000400010058
:101980000200010003000100020001000500010047
:101990000200010003000100020001000400010038
:1019A000020001000300010002000100CC19000840
:1019B00000000020680000006C010008341A0008D4
:1019C00068000020A81700008801000800A24A044F
:1019D00000000000000000000102030406070809DF
:1019E00000000000000000000000000000000000F7
:1019F00000000000000000000000000000000000E7
:101A000000000000000000000000000000000000D6
:101A100000000000000000000000000000000000C6
:101A200000000000000000000000000000000000B6
:041A300000000000B2
:04000005080001CD21
:00000001FF
